:0400000002001132B7
:03000B000202F9F5
:03006A0002000E83
:03000E0002006D80
:20006D00439140439240439180439280120CC31202AF1202E775822112038A1203D250080C
:20008D001202961203EE40FB12021130790BE5327007E53170031200FD307814E53BB533A8
:2000AD000FE53CB5320A7403B53105755000D2001200D21204E680D3858247E547600512F5
:2000CD0004C280F722300027C2957582421200C5D2957582211200C5C2957582421200C539
:2000ED00D2957582E11200C512041850D8C20022A27F9201C211120F14AF33AE3DAD3EA28D
:20010D00019211C007C006C005120F14D005D006D007C3ED9E400BEF9E4014ED9F401002CD
:20012D00013DC3EF9E5005C3ED9F400302013D22C29575824212038AD29575822112038A8E
:10014D00C29575824212038AD2957582FA02038A8C
:20015D00AF828FF005F07401800225E0D5F0FB429D75BD0075BC8022AF8274A84FF5BC00F0
:20017D00E5BC30E4FB53BCEFAEBD7F00EE2EFEEF33FFEE2EFEEF33FFACBE5304037D00EC27
:1E019D004206ED42078E828F8322AF8274A84FF5BC00E5BC30E4FB53BCEF85BD8222A1
:2001BB0000000022C292C2901201BBD29022AF827E00C291EF5401FD24FF92911201BBC2F1
:2001DB00921201BBD292EFC313FF0EBE080040E2227F007E00D2921201BBC2921201BBA271
:2001FB0091E433035480FDEFC313FC4DFF0EBE080040E28F82221201BF7582BF1201C97A54
:20021B000779311201ECA78209DAF80201BF1201BF7582BE1201C97A07793187821201C9DA
:20023B0009DAF87582001201C90201BF1201BF7582BF1201C97A0379311201ECA78209DA9D
:20025B00F80201BF1201BF7582FF1201C97A0A79381201ECA78209DAF81201BF853A2F220B
:20027B001201BF852F3A7582FE1201C97A0A793887821201C909DAF80201BF7A117900789F
:20029B0031901086E993F60809DAF9120229853A2F02027B1201BF7A05799787821201C9A6
:2002BB0009DAF81201ECE582547FFF758280C0071201C9D0078F821201C91201BF12025FED
:0C02DB00E5396538FFBFFF0122020296E2
:161086005559191231011655AA00080008176301008E009000810A
:2002E700438E80758CFB758AAFC28DD28CD2A9D2AF22C023C0E0C0F0C082C083C007C006EC
:20030700C005C004C003C002C001C000C0D075D00012046EE542FF14F542EF700C75423C1F
:20032700E5476005E54714F547E543FF14F543EF70347543C8120392E54A6005E54A14F5B0
:200347004AE544FF14F544EF700E75440AB205E5466005E54614F546E545FF14F545EF7010
:2003670005754532B204D0D0D000D001D002D003D004D005D006D007D083D082D0F0D0E07E
:20038700D02332858247E54770FC22E54825E0FFA2B1E4334F44E0F54874F0B54802D202A7
:2003A700E54925E0FFA2B0E4334F44E0F54974E0B5490474018001E4FFE54AB4010092063F
:2003C700E4335F6005754A12D2032274E0B5480474018001E4FF74E0B5490474018001E415
:2003E7005F6002D322C322C202C20374FFB5480474018001E4FF74FFB5490474018001E436
:200407005F6002C322D32274E0B54902D322A205221002028002D322C3221003028002D34E
:2004270022C322AF82100201228F5022AF82100201228F502007021550740CB54B0122854C
:200447004B82020B18AF82100301228F5022AF82100301228F502008021550740CB54C01E4
:0704670022854C82020B18F4
:20046E00E55D601FAF5C8FF005F07404800225E0D5F0FBF452B0E55C2458F987A0E55D1446
:20048E00F55D22E55E600943B03CE55E14F55E22E55C04FF8F5CBF04004003755C00855652
:2004AE005D74C1255D5004755E0122AF5D743FC39FF55E22C209A204920AA204920BA20D3B
:2004CE00920C120211853382120BA485324ED210120D80C210020DC37582061201A7E58208
:2004EE000303543FFF7E008F828E83120E35858256A20E82045010758207120175120E6464
:20050E00858257C20E8005200402D20EE55024D05003020AB4E550240B83F582E5502434ED
:20052E0083F583E47393C6FC2847596B849DAFC1EB0C1E4C6B7D9DBDD5FD1F314B637B8CC8
:20054E009DB5CDE5FD0E1F4F3866937FA7D4C0E8FA2551718D050505060606060606060690
:20056E0006070707070707070707080808080808080808080809090909090909090909096D
:20058E00090A0A0A0A1204C275820512042A12042150067546C87550017430B53102800125
:2005AE002275461E307C03755004307B03755003207A012275500222C209A204920AC20BC4
:2005CE00C20C12021185324D85314E120D80120DC375820012042A12042150097531001212
:2005EE0002297546C8E54660012275500022120C1E75820512042A120421E54660012275D8
:20060E00461E307C03755004307B03755003307B0122307C012275500022120C7775820565
:20062E0012042A120421E54660012275461E307C047550042275500022120C9BE5467002D6
:20064E00F55075820512042A020421758200120AB875820612042A75820902044C75820192
:20066E00120AB875820712042A754C01A2789208758218020455758202120AB8758208129C
:20068E00042A754C05A27A920875821C020455758203120AB875822F12042A7582210204E2
:2006AE004C758200120B1875820C12042A75820A02044CD20AD20BA20D920C120D86120D54
:2006CE00C375820B12042A120421400122853382120CD0AF828F33120BA4D20F22120D80EF
:2006EE00120DC975820C12042A120421400122854E82120CF385824E854E32D20F2275826D
:20070E0001120B1875820F12042A75820D02044CD20AD20BA20D920C853B82120BA4853C2F
:20072E004E120D86120DC375820E12042A120421400122853B82120CD0E582F53B22120DEF
:20074E0080120DC975820F12042A120421400122854E82120CF385824E854E3C227582025E
:20076E00120B1875821212042A75821002044C120BC1120D86120DC375821112042A1204D1
:20078E0021400122853D82120CD0E582F53D22120BC1120D80120DC975821212042A120416
:2007AE0021400122853E82120CD0E582F53E22D20AC20BC20C758203120B187582151204F0
:2007CE002A75821302044C120BF9120D86120DC375821412042A75822F12042A12042140C0
:2007EE000122755F00854D82120D0285824D22120BF9120D80120DC975821512042A12040A
:20080E0021400122755F02854E82120D0285824E22758204120B1875822F12042A758216E0
:20082E0002044C120C8675822F12042A120421400122853682120D55E582F53622120B939F
:20084E00C278754B02A279920775821A12043375821802044C120B82D278754B02A27992C7
:20086E000775821A12043375821702044C120B93C27975822F12042A75821A02044C120BD8
:20088E0082D27975822F12042A75821902044C120B93C27A754B03A27B920775821E120425
:2008AE003375821C02044C120B82D27A754B03A27B920775821E12043375821B02044C125A
:2008CE000B93C27B754B04A27C920775822012043375821E02044C120B82D27B754B04A29B
:2008EE007C920775822012043375821D02044C120B93C27C75822F12042A75822002044C52
:20090E00120B82D27C75822F12042A75821F02044C758204120AB875822412042A754C0C17
:20092E00A27F9208758223020455758206120B4DD211120F1475822412042A758222020480
:20094E004C758207120B4DC211120F1475822412042A75822302044C75820A120AB875823A
:20096E002712042A754C0CA27D9208758226020455758208120B4DD27D75822712042A7579
:20098E00822502044C758209120B4DC27D75822712042A75822602044C758209120AB87591
:2009AE00822A12042A754C0CA27E9208758229020455758205120AB8D27E75822A12042ABA
:2009CE0075822802044C758206120AB8C27E75822A12042A75822902044C758207120AB8E2
:2009EE0075822D12042A75822B02044CD20AC20BC20C853F4D85404E120D86120DC37582F8
:200A0E002C12042A120421400122854D82120D6485824F854F3F2285404E120D80120DC9C6
:200A2E0075822D12042A120421400122854E82120D6485824FC3E53F954F5003754F018514
:200A4E004F4022AF3FC3EF954050068F4075502B22758208120AB875822F12042A75822ECD
:200A6E0002044C120C1E75822F12042A1204215038AF41BF0F047541F122EF04F5412212CD
:200A8E000CC3200F051202478005753100C20F12022912027B754606E54670FC120418128A
:200AAE0004217550002275500022E582258225E0FFFD3395E0FEED24B4F582EE3410F5839A
:200ACE00E493FE8E58EF04FE3395E0FDEE24B4F582ED3410F583E493FE8E5974022FFE33FF
:200AEE0095E0FDEE24B4F582ED3410F583E493FE8E5A0F0F0FEF3395E0FEEF24B4F582EE45
:200B0E003410F583E493FF8F5B22E5822582FFFD3395E0FEED249CF582EE3410F583E49394
:200B2E00FE8E580FEF3395E0FEEF249CF582EE3410F583E493FF8F59755AFF755BFF22AF83
:200B4E00827558FF7559FFEF2FFFFD3395E0FEED249CF582EE3410F583E493FE8E5A0FEF83
:200B6E003395E0FEEF249CF582EE3410F583E493FF8F5B229010B2E493FF8F5A9010B3E487
:200B8E0093FF8F5B229010B0E493FF8F5A9010B1E493FF8F5B22AF82307F13741F5FF54D00
:200BAE008F055305207E00ED4E24FF920D228F4DC20D22307F28741F553DF54DAE3D53062F
:200BCE00207F00EE4F24FF920A741F553EF54EAE3E5306207F00EE4F24FF920C800A853DD5
:200BEE004DC20A853E4EC20CC20B22307E0885354D85344E800685344D85354ED20A22307A
:200C0E007E07854D35854E3422854D34854E3522AF57E5412FF582120EBA85824DAE4D5393
:200C2E0006F0E4C4CEC4540F6ECE540FCE6ECE30E30244F0FFEE24F8F582EF3410F583E412
:200C4E0093FF8F58AE4D53060F7F00EE24F8F582EF3410F583E493FF8F59307D05755A31EF
:200C6E008003755A70755BFF22D20AC20BC20C120BF9120D80020DC312040E5003020C9B95
:200C8E007558FF7559FF755AFF755BFF22C20AC20BC20C85364D7558FF7859A94D19E929C1
:200CAE0029F97A039010E0307E03A3A3A3E993F60809DAF9227558FF7559FF755AFF755BBE
:200CCE00FF22AF82307F078F82120EFBAF82EF2401D4FFBF24027F00307F078F82120EEF80
:200CEE00AF828F8222E582FF2401D4FFBF60027F008F8222AF82E55F7015307E098F82127D
:200D0E000D33AE82801C8F82120D44AE828013307E098F82120D44AE8280078F82120D333D
:200D2E00AE828E8222E582FF2401D4FFBF13027F018F358F8222E582FF2401D4FFBF320249
:200D4E007F018F348F8222E582FF2401D4FFBF08027F018F8222E582FF2401D4FF8F82C006
:200D6E0007120E94AE82D007EE24C050027F018F8222D38006C3800312040E74FF3400F56D
:200D8E005174FFA209B313F55274FFA20AB313F5539010F8E54DC4540F301006700474FF7E
:200DAE0080059345515552F558740F554D9345515553F55922D38006C3800312040E74FFE7
:200DCE003400F55174FFA20BB313F55474FFA20CB313F555E54EC4540F90110293455155B0
:120DEE0054F55A740F554E9010F89345515555F55B224D
:20109C00C6C788C7C689A188A191878CCFA4A499FF8EFFC69C8E9CAB9286B8FF8386B08C14
:2010BC00A192A1FFC68E82FFF924A499F92486F9B079CFA483AFB8FFC688F8FFA188B88645
:2010DC008786C18C92DCABC89CAB87DC8481A0A18799E38EBDFB92848792DCABC0F9A4B0BD
:1010FC00999282F88090C0CFA4868B9290C7808200
:200E0000E560C39562F582E5619563F583E568C39566F56AE5699567F56B120F81E564C3E4
:200E20009562F56AE5659563F56B12104AAE82E5662EF5822285826085836175623F75634E
:200E400000756401756500854082120E94AF828F66756700853F82120E94AF828F687569E1
:200E600000020E008582608583617562F2756302756419756501307D0E756620756700751B
:200E8000687B756900800AE4F566F567756833F569020E00AF828F055305F0E4C4CDC45454
:200EA0000F6DCD540FCD6DCD30E30244F0ED75F00AA4FD740F5F2DF58222AF827E00756A03
:200EC0000A8E6B8F828E83C007C00612104AAC82D006D007756A0A756B008F828E83C0046A
:200EE000121014AE82D004ECC454F04EF58222120E94E58290110C93F58222AF827E00EE4C
:200F000090110C93B5070280060EEE24E850F08E82020EBAA211207F01B34064301131D23D
:200F20000FD27FD27ED27D853382120EEFE582F533853B82120EEFE582F53B853D82120E8E
:200F4000EFE582F53D853E82120EEFE582F53E22D20FC27FC27EC27D853382120EFBE5829C
:200F6000F533853B82120EFBE582F53B853D82120EFBE582F53D853E82120EFBE582F53E63
:010F8000224E
:18110C00928182838485868788899091B2A1A2A3A4A5A6A7A8A9B0B18B
:06004000E478FFF6D8FD94
:20001E007900E94400601B7A00901124780175A000E493F2A308B8000205A0D9F4DAF27553
:02003E00A0FF21
:1D0F8100E582856AF0A4C582C0F0856BF0A4D0F025F0C583856AF0A42583F583220C
:200F9E00E56A456B60467A01E56A25E0F56AE56B334012F56BE582956AE583956B40030A10
:200FBE0080E6C3E56B13F56BE56A13F56AC3E582956AF5F0E583956B4005F58385F082C379
:0D0FDE00E56B13F56BE56A13F56ADAE122A5
:200FEB007A10E4FBFCE58225E0F582E58333F583EB33FBEC33FCEB956AF5F0EC956B400656
:09100B00FCABF0438201DADD22A6
:200046007800E84400600A790175A000E4F309D8FC7800E84400600C7900900001E4F0A3B8
:04006600D8FCD9FAEF
:0D00110075816B121082E582600302000E03
:20101400C2D5E58330E70DD2D5E4C39582F582E49583F583E56B30E70BE4C3956AF56AE4EE
:16103400956BF56B120F9E30D50BE4C39582F582E49583F58322AC
:20104A00C2D5E58330E70DD2D5E4C39582F582E49583F583E56B30E70DB2D5E4C3956AF57D
:18106A006AE4956BF56B120FEB30D50BE4C39582F582E49583F58322D9
:041082007582002251
:00000001FF
